:020000041000EA
:1000000000B5324B212058609868022188439860DF
:10001000D860186158612E4B002199600221596106
:100020000121F02299502B49196001219960352056
:1000300000F044F80222904214D00621196600F024
:1000400034F8196E01211966002018661A6600F04E
:100050002CF8196E196E196E052000F02FF8012189
:100060000842F9D1002199601B49196000215960AB
:100070001A491B48016001219960EB211966A021F2
:10008000196600F012F800219960164914480160C1
:100090000121996001BC002800D000471248134993
:1000A000086003C880F30888084703B5996A0420EC
:1000B0000142FBD001200142F8D103BD02B5186610
:1000C0001866FFF7F2FF186E186E02BD00000240BE
:1000D000000000180000070000035F00212200005C
:1000E000F4000018222000A00001001008ED00E03C
:1000F00000000000000000000000000074B24E7A12
:1001000000200420F7010010C3010010C5010010F9
:10011000C1010010C1010010C1010010C101001097
:10012000C1010010C1010010C1010010C701001081
:10013000C1010010C1010010C9010010CB01001065
:10014000CD010010CD010010CD010010CD01001037
:10015000CD010010CD010010CD010010CD01001027
:10016000CD010010CD010010CD010010CD01001017
:10017000CD010010CD010010CD010010CD01001007
:10018000CD010010CD010010CD010010CD010010F7
:10019000CD010010CD010010CD010010CD010010E7
:1001A000CD010010CD010010CD010010CD010010D7
:1001B000CD010010CD010010CD010010CD010010C7
:1001C00000BE00BE00BE00BE00BE00BEEFF3058054
:1001D000103800BEF2EB8871285B00104C5B0010F9
:1001E0003402001090A31AE700201F49086006C8D7
:1001F00081F3088810471D48006800282FD10DA4FE
:100200000ECC002902D000F012F8F9E71849194A7B
:10021000002000E001C19142FCD1174988471749ED
:1002200088471749884700BEFDE701C901C29A42C5
:10023000FBD370474C5B0010C000002078140020F6
:10024000046F00100000042000000420046F001060
:10025000001004200010042000000000704709482E
:1002600001F0E0FF0047000008ED00E0000000D0D2
:100270007814002078230020692000100903001062
:10028000912100105756000006005250ABB3605346
:100290009056001006005250861C0302A056001013
:1002A000060052505422A29DB05600100500525034
:1002B000DE65F468046F0010F8B5C04606480749CB
:1002C000091A8B10C90FC91810B5491003D0044B77
:1002D000002B00D0984710BD78140020781400201F
:1002E00000000000054B10B5002B03D00449054861
:1002F00000E000BFFFF7E2FF10BDC04600000000B5
:100300000422002058550010F0B5DE4657464E46F0
:100310004546E0B5844CD025A54402F0D7F9834981
:10032000834804F08BFB03210E2000F001FA032127
:100330000F2000F0FDF9002201210E2000F010FA3C
:10034000002201210F2000F00BFA00F00DF9794B8B
:1003500002A802930023039300F0FAF88022002100
:10036000D20004A802F088F802A904A800F028F935
:100370000D2000F007FA80232D069B010B206B62F5
:10038000994600F0FFF980231B010C206B6200F0FE
:10039000F9F980235B0105206B6200F0F3F920235B
:1003A0000022AB620121052000F0DAF9624B634FB5
:1003B0009A46634B9B46634B01934B466B6180238C
:1003C0001B01AB61802380225B010021AB61D20065
:1003D00004A802F051F85646002422B2052108CEA6
:1003E00004A80A3400F038F91E2CF6D102A904A89A
:1003F00000F0E6F8012301269846323405E0642037
:10040000013C01F06BF8002C4AD042466B685B0956
:1004100033405340DBB23B60002BF0D04B463E6094
:100420006B6180231B016B618023802200245B01B0
:100430000021AB61D20004A802F01EF8019E22B296
:10044000052108CE04A80A3400F006F9282CF6D1BC
:1004500002A904A800F0B4F83B4801F03FF84B466D
:10046000AB6180231B016B61802380225B01002133
:10047000AB61D20004A801F0FFFF5E46002422B267
:10048000052108CE04A80A3400F0E6F8282CF6D19D
:1004900004A802A900F094F82C4801F01FF88CE79A
:1004A0004B463C606B6180231B016B618023802283
:1004B00000245B010021AB61D20004A801F0DCFF45
:1004C000019E22B2052108CE04A80A3400F0C4F827
:1004D000282CF6D102A904A800F072F8FA20C00076
:1004E00000F0FCFF4B46AB6180231B016B61802356
:1004F00080225B010021AB61D20004A801F0BCFFA7
:100500005E46002422B2052108CE04A80A3400F079
:10051000A3F8282CF6D104A802A900F051F8FA207B
:10052000400100F0DBFF48E7ECFBFFFF801A06000C
:10053000F00E0020007F0007E80D0020A816002024
:10054000040E0020F40D0020881300001027000086
:10055000037842788178D21AC37801325B1A01336A
:10056000534343607047C046F0B54746CE4680B51A
:100570008BB003AC2200104B802723CB23C223CBAC
:1005800023C21B880026138026236B4499460B4BFD
:1005900002AD984623782F706B702A0002233C210D
:1005A00040460096013404F071FA4C45F2D10BB08C
:1005B000C0BCB946B046F0BD8C580010F00E00200B
:1005C000F0B557464E464546DE462123E0B587B096
:1005D00004AC23700B78834663704B788A46A37013
:1005E0002223E3704B880027A38016236B4499468F
:1005F00080239846174E03AD424623782A706B70CD
:100600002A0002233C2130000097013404F03EFA16
:100610004C45F1D153465B685D1C2800984601F0BB
:100620000DFF40230400424659460370013001F09B
:1006300029FF2B0022003C213000009704F026FA0D
:10064000200001F00DFF07B0F0BCBB46B246A94642
:10065000A046F0BDF00E0020F0B5DE4657464E46EF
:100660004546E0B585B078294DDC382A4BDC1C784E
:10067000002C48D00725D6173540AA18D210D20131
:100680000292294A0392294A93462AE0303C092CD7
:1006900040D8FF242240153A5C46D200A45C5A445C
:1006A000A24654781779A14694785679A046D47812
:1006B0009579A446D27901925446029A8A188454B4
:1006C0004C4682185470444694706446D470019C21
:1006D000177156719571D4711C78083109B2002CCC
:1006E00011D001337829F7DC0326039D22002D5D0C
:1006F0003540022D01D1203AD4B22500413D192DBB
:10070000C4D8403AC8E705B0F0BCBB46B246A946DB
:10071000A046F0BD00220025002600279446904602
:10072000914692460192C7E7255A0010645700107F
:10073000094A10B594464024830063441A68C000F7
:100740006240803414408022520113431C60034BEA
:100750009C466044416010BD04C00140004001401F
:10076000074B80009C4660440368C90092000A431E
:100770005A400C231A4080235B0103431A607047E0
:1007800004C001400123D02283401206936293618A
:10079000094A40219446830063441A68C0004A40D5
:1007A000803111408022520113431960034B9C4653
:1007B000052360444360704704C00140004001408D
:1007C000024B18688007C00F7047C04600C0064043
:1007D00070B5EFF3108C72B60D4D2B68002BFCD06A
:1007E000BFF35F8F0724CB08C618C05C01230C4001
:1007F000A3401C000440034207D118433070BFF3EC
:100800005F8F2C608CF3108870BD100001F0C4FC69
:100810002C0100D0F8B54746CE46884680B5EFF3A8
:10082000108C72B6214D2C68002CFCD0BFF35F8F6A
:100830009A422CD8D4080727055D061901241740D1
:10084000BC402C421FD007210127894609E0D4086B
:10085000055D06194C4639001440A1400C002942A0
:1008600011D001329342F2D201204042BFF35F8F98
:1008700000220E4B1A608CF3108800280FDBC0BCDE
:10088000B946B046F8BD254310003570EEE7BFF31A
:100890005F8F00232B608CF3108801204042434679
:1008A000002BECD0089801F077FCC0462C0100D05A
:1008B0000021044B044ABFF35F8F02C39342FAD175
:1008C0007047C046000100D0800100D0044A107873
:1008D000431CDBB2172B00D9102313707047C0469E
:1008E000140E002010B5064B064C82B00100009398
:1008F00018221F232000FFF78DFF02B010BDC04655
:10090000D0550010781D002001238340002904D019
:10091000034A1360034A13607047034A1360FBE7FE
:1009200080E200E000E100E080E100E0012383409C
:10093000014A13607047C04600E200E0084B1030E7
:100940009B688000C358002B07D0064A00209B1AE2
:100950002F229A424041C0B270470020FCE7C046B7
:1009600000ED00E0180E0020024B10309B68800064
:10097000C058704700ED00E070B50D00EFF3108631
:1009800072B60F4A1368002BFCD0BFF35F8F0D4B7C
:1009900010309B6884001B590B4A934203D09D4240
:1009A00001D001F011FC074B9B681D51BFF35F8F15
:1009B000BFF35F8F0022024B1A6086F3108870BD70
:1009C000240100D000ED00E0CD010010F0B5574645
:1009D0004E46DE464546E0B585B00600009117005C
:1009E000EFF3108B72B66A4A1368002BFCD0BFF38A
:1009F0005F8F0025674B5D579A46002D00DAA9E00E
:100A00006B00654C01935B199B009846A146C1445D
:100A10004B4652469B7910361370604BB6009B686C
:100A200099590B1B2F2B33D95D4B994200D0ACE069
:100A3000019B42469C465B4B6544AD0063535A4B59
:100A40000232A218043B9B1A1B05584A5B0D65191C
:100A500013436B80564B0121AB80FF23AB71009B8E
:100A6000EF71AB604B460B4319004C4B9B6899519F
:100A7000BFF35F8FBFF35F8F0022454B1A608BF38C
:100A8000108805B0F0BCBB46B246A946A046F0BDF2
:100A900001200A008243D3798C46BB4231D84546B7
:100AA000130044491B1B5B415943090D3D4B6353E4
:100AB0003D4B02356519043B5B1B1B053B4D5B0D34
:100AC0002B43AA464D466B800425AC465546E04470
:100AD000131F44441B1B1B055B0D1D434B469971A3
:100AE00000999D8099604946DF71334B0143136043
:100AF000BBE75800C01880002018C179B9422FD92F
:100B000002000623D356002BF3DA02932B4B6146E7
:100B10000393131D9A4604235B429C46E1445046CE
:100B20004B461B1A1B055B0D9C46204B9571984646
:100B30006346404603439380019B5A199200039BEE
:100B4000A418A380029B1C4AA371009B2260E7713A
:100B5000A3608AE701F038FB002553465D574FE755
:100B6000908802934005131D9A46031561469C46E2
:100B70004046D444634604302018181AE023000588
:100B8000400D1B0218430390C5E701F01DFB4FE722
:100B9000240100D071230020180E002000ED00E099
:100BA000CD01001000A1FFFF480E002000E0FFFF74
:100BB00001BDFFFFAAAA00000148804701BD000057
:100BC000F0B5DE4657464E464546E0B50C0083B0CC
:100BD000EFF3108872B65D4A1368002BFCD0BFF3A8
:100BE0005F8F5B4B5B499A68030010339F00D559B8
:100BF0008D4239D0A5424AD0574EAA1B2F2A33D84E
:100C000001229246824091464846544A126810405A
:100C100001904846524A1060BFF35F8FEFF30582A0
:100C20009346002A35D0934201D001F0CDFA2A0034
:100C300053469A439068844208D175E04B005B1894
:100C40009B00F3189868A04234D01A000621515630
:100C50000029F3DA844253D0019B002B26D04A4668
:100C6000404B1A603D4B1A60394B9B68DD51BFF316
:100C70005F8FBFF35F8F0022344B1A6088F31088B8
:100C800003B0F0BCBB46B246A946A046F0BD0D007D
:100C9000EAE72A0053469A4390688442D6D1062058
:100CA00010561300002809DA0D0031E04A462C4B9B
:100CB0001A60D9E706201856002822DB42001118D6
:100CC000890074188A46A1689960E179D971062172
:100CD00061569971002925DBA488F11A6405241551
:100CE00054440919E0240905490D2402214399803F
:100CF00013181D4A9B001178F31899711070ABE717
:100D000013005946002914D1FF3191711749918080
:100D100015490A789A71164A9B1B5B415A43120D7A
:100D20000A7099E71349E2E70620105613000028DD
:100D3000C4DA114A1149D21A083A5002400D01434F
:100D400099800F4952080A43DA8085E7240100D0D0
:100D500000ED00E0CD010010180E002000E100E0E1
:100D600080E100E080E200E07123002001BDFFFF90
:100D7000AAAA000001BD0000520E002000F0FFFFF3
:100D800000F8FFFF70B5EFF3058101240443EFF392
:100D9000108C72B6214A1368002BFCD0BFF35F8F12
:100DA0001F4B05001F4AED1A6D416A43120D1E4D7F
:100DB0008900AE6852B27658A6421CD00621595618
:100DC00091421CD012215956914222D01E215956CF
:100DD000914220D02A2159560324914210D0134B1E
:100DE00019781A708171BFF35F8F00220B4B1A6064
:100DF0008CF3108870BDAB680D4C5C50EFE700249D
:100E00006100091989005B18FF21997109499980CE
:100E1000E5E70124F4E70224F2E7C046240100D00C
:100E2000180E0020AAAA000000ED00E071230020A7
:100E3000CD01001001BDFFFF054B064A1360064AB5
:100E4000136053609360D360136153619361704783
:100E50008080808000E400E004E400E010B5084BEE
:100E6000084C82B001000093002205232000FFF708
:100E7000D1FC002801DB1F23181A02B010BDC046A8
:100E8000EC55001076230020024B9C4661448900FB
:100E9000016070474000003410B50400FFF716FDF4
:100EA00001002000FFF7F0FFFF232371BFF35F8FE6
:100EB00010BDC04610B50400FFF708FD010020007A
:100EC000FFF7E2FFFF23A380BFF35F8F10BDC04693
:100ED00010B504000120FFF705FD034BC3189B006C
:100EE0002360BFF35F8F10BD40000034034B9C466E
:100EF000614489000160BFF35F8F70474000003498
:100F000083680B4810B584466144624412010901AC
:100F100059189B185C684A680120944201D802D095
:100F20000020C0B210BD1A680B689A42F9D8F7E7E2
:100F3000FFFFFF0F0A4B1968EFF3108072B60A68C3
:100F4000002AFCD0BFF35F8F1B68BFF35F8F0022C6
:100F50001A6080F3108840BF002000217047C0460F
:100F600040230020F8B5574645464E46DE46E0B5DC
:100F700098460CAB1C780DAB1B78070091469A463F
:100F80000568002C59D1AC7B002C3BD06600296849
:100F90003619033E89194B78AB73002B00D1EB73E4
:100FA00000238B704B700B702D4BE218BB68120145
:100FB0009B184A461A6042465A600A9A9A600B9AEF
:100FC000DA6000238B704B700B706B7B9B46002BA1
:100FD00026D022006B685946A86898475B465B009C
:100FE0005B442A68033B002812D058469619B0701B
:100FF000D118D35C002B00D073705B460C706B7300
:101000005C450ED0F0BCBB46B246A946A046F8BD32
:10101000D3189C709119925D002A1CD15B460B700D
:101020006C734A464346387D00F0A4FB051E0AD186
:101030000E9B002BE6D01D70E4E766002968361988
:10104000033E8919B0E75346002BF1D121003868DF
:1010500000F0A8FDECE75A705B460B706C73E0E79C
:10106000FFFFFF0FF0B5DE4657464E4645460023CC
:10107000E0B58BB00893684B8200D45800239B46A0
:10108000099000F017FB02000B006068EFF3108A74
:1010900072B6564601680029FCD0B246BFF35F8F96
:1010A00021684F7B8C46002F2ED0A5685B49A9464E
:1010B00079180901894449460868496805000E0005
:1010C000AD1A9E41002E5FDD02000B00099800F072
:1010D00051FB002300229946002306920793002328
:1010E00098466368BFF35F8F5A461A608AF3108888
:1010F0004346002B12D10028C3D10BB0F0BCBB4635
:10110000B246A946A046F0BD00230022994600231E
:1011100006920793002300209846E2E7089B494681
:1011200018023843C047626805000E00EFF3108ACA
:1011300072B61368002BFCD0BFF35F8F002E41DB2B
:101140002B00334302D02369002B56D12368D97B6F
:10115000002905D01A68480041185218033A577000
:101160009A7B002A00D19F73DF73E268013FD35D51
:101170000133D3555B4623616368BFF35F8F5A46E3
:101180001A608AF310887CE7002E02D1002D00D06F
:101190009AE70021604600F083FC4B461A685B68C2
:1011A000069207934B469B6898464B46DB689946E8
:1011B000E368DB19013B1B7808931B02034323619F
:1011C00000208EE72369002BC0D0069A079B802160
:1011D000521BB34109068B4202D30122104B5242EB
:1011E00000210491013103914946019141462000BB
:1011F00002970091FFF7B6FEBCE700F05BFA2A0009
:10120000330012184B41802109068B42E8D301229A
:10121000034B5242E4E7C04624220020FFFFFF0FA9
:10122000FFFFFF7F10B5144C6368002B04D00A2128
:101230001248FFF729FE10BD2300114A1021206833
:1012400000F04AFB032000F029FA032000F0FAFA2C
:1012500003200C4900F048FAFFF738FB0A4B9C4684
:1012600003232375D0231B061B6860446375074B5B
:1012700080006060DC60DAE7600E00204023002020
:10128000010F0010651000104000003424220020DF
:1012900000487047600E0020F0B557464E46454660
:1012A000DE46E0B585B0019310AB1B7806000393D2
:1012B00000239A46984600927268EFF3108B72B63C
:1012C0001368002BFCD0BFF35F8F3568AC7B002C1C
:1012D00000D16EE067002B683F19033FDB195A7895
:1012E000AA73002A00D1EA73484AA118B26809011A
:1012F000521800980199106051600E9991600F99F1
:10130000D16042469A705A701A706B7B9946002BD6
:1013100000D16BE022006B684946A86898474B46AD
:101320005B004B442A68033B002856D04846D71937
:10133000B870D118D35C002B00D07B704B460C707A
:101340006B734C4553D0F3681B19013B18787368D5
:10135000BFF35F8F42461A608BF310885346002B11
:1013600008D10002204305B0F0BCBB46B246A946F6
:10137000A046F0BD039B002B46D00E9B00200F998A
:10138000984703000B433FD004000D1E1ADA009A61
:10139000019B121BAB4100920193802212069342E3
:1013A00004D301231A4C5B4200930194039B9A4699
:1013B00082E77368BFF35F8F1C608BF31088012096
:1013C0004042D0E700F076F9802200196941120608
:1013D000009001919142E9D3E3E7D3189C70D119B1
:1013E000D25D002A00D05A704B460B706C73307D72
:1013F000009A019B00F0BEF982460028A3D021008C
:10140000306800F0CFFB9EE70020ACE7FFFFFF0F46
:10141000FFFFFF7F407D7047F0B504000D000626FA
:101420007642F717C64636196F4100B584B08F4231
:1014300014D811D000F03EF932003B00121A8B4153
:10144000002B15DC002B3ED02000290000F03CF9D9
:1014500004B080BCB846F0BD8642EBD90026002718
:1014600000F028F932003B00121A8B41002BE9DD15
:10147000002302930193154B3200009314483B0064
:10148000FFF70AFF0028DFDB00239846BC46114A1D
:10149000114F7B6A9C4504D8B96A8E42D4D99C45C9
:1014A000D2D11168EFF3108072B60B68002BFCD01C
:1014B000BFF35F8F1368BFF35F8F4146196080F3FE
:1014C000108820BFE5E7002ABED0D1E7350F001015
:1014D000600E0020402300200040054070B506004B
:1014E00000F0E8F8FA2204000D000023300000218B
:1014F000920000F055FF8023001969411B069942B4
:1015000002D3012002494042FFF786FF70BDC0466A
:10151000FFFFFF7FF0B5EFF30583CE46474680B56A
:1015200005000C0085B0002B12D02A4A0020536A17
:10153000A34203D3926A0130AA4204D305B0C0BCCF
:10154000B946B046F0BD1B1B5A1E9341D8B2F5E711
:10155000214E02930193214B0200009330000B00B7
:10156000FFF79AFE031EE0DD20BF7168EFF31087DE
:1015700072B60A68002AFCD0BFF35F8FDAB29446D5
:10158000FF2230681A40417B61450FD001688946CF
:1015900051008846494690444144033989780029DE
:1015A00004D13269934209D1316107E0F1681B0A25
:1015B0008A18013A1278DBB29A4207D07368BFF3F7
:1015C0005F8F00221A6087F31088AEE7614600F053
:1015D000E9FAF3E700400540600E0020350F0010E7
:1015E000F0B5EFF30582D6464F4646461000C0B52B
:1015F0001038EFF3108872B6214C2368002BFCD012
:10160000BFF35F8F0123190081401E4D1F006963E6
:10161000AA461D4D29601D4D2E78AC463500C540AB
:101620002F402B4215D053465F6A194B8500EB586B
:101630009F4218D36246174B8E43EB581670BFF388
:101640005F8F0022226088F31088002B06D0984715
:1016500004E0BFF35F8F276088F31088E0BCBA46D0
:10166000B146A846F0BD0C4B92009C4662441368FC
:101670001360BFF35F8F0023236088F31088EDE7CA
:10168000280100D0004005403C7005407523002033
:101690004C230020601C0020D03F054010B5034BB8
:1016A00001001800024AFFF793F810BD70230020D4
:1016B00008560010034B596A0A00986A596A8A4210
:1016C000FAD1704700400540064A536A9942FCD857
:1016D00007D1044B02E05A6A914202D19A6A8242CF
:1016E000F9D370470040054070B504000D00EFF3DA
:1016F000108672B61A4A1368002BFCD0BFF35F8FB6
:10170000002D1BD02000FFF72FF9164981420AD087
:101710002000FFF731F901212000FFF7F5F8012340
:10172000A340114A1360114BA400E550BFF35F8F33
:1017300000220B4B1A6086F3108870BD0121A14076
:101740000A4BA200D5500A4B20001A788A4305495B
:101750001A70FFF735FA00212000FFF7D5F8E5E70A
:10176000280100D0E115001038600540601C002001
:1017700075230020F0B54F46D6464646C0B5070053
:101780002B4C616A0D00A66A616AA942FAD18B42AC
:1017900008D805D00120E0BCBA46B146A846F0BD45
:1017A000B242F7D9EFF3108A72B6224801680029D5
:1017B000FCD0BFF35F8F0125BD401F491C4C8846FC
:1017C000097889462943C9B28C464146604608706B
:1017D000391D890065630A511849B8004350216AD0
:1017E0000020294219D0616A0800A66A616A814214
:1017F000FAD18B4219D801D1B24216D8CC450BD0C0
:101800000B4B1F221D625D6301233A4093400C4A3B
:10181000136043464A461A700120BFF35F8F0022CF
:10182000044B1A608AF31088B5E70020F5E7C0463C
:1018300000400540280100D0752300204C230020E3
:1018400080E200E0EFF3108C72B60A490B68002BBF
:10185000FCD0BFF35F8F01238340074A0748136220
:1018600002789A430270BFF35F8F00230B608CF302
:1018700010887047280100D00040054075230020E3
:1018800070B506000D00140000291DD0002A12D0EA
:1018900073688068984762006B0012195B193168A1
:1018A000033A033B002808D08A189570C818CB5C0F
:1018B000002B0BD10470280070BDCB189C708818C9
:1018C0008A5C002A05D105702000F5E7537004708A
:1018D000F1E75A700570F7E710B583600023CCB2CA
:1018E00043730133426004738373C4730068421C02
:1018F000012C05D90133DBB2137003329C42F9D1BC
:10190000FF230B405A00D318C0180023033843703C
:1019100010BDC04670B505000C1E07D063000168FD
:101920001B19033BCB185A78002A01D1200070BD47
:10193000500080180338091800204E7848702100A4
:1019400058702800FFF79CFF310004002800FFF7C3
:10195000E1FF0600002C20D00028E7D03200210053
:101960006B68A86898477200630092191B19296870
:10197000033A033B002808D08A189470C818CB5C3F
:10198000002B00D053700670D0E7CB189E708818DB
:101990008A5C002A00D05A7004703400C6E7C04642
:1019A000F0B557464546DE464E46E0B50D006F00A1
:1019B00001687F19033F0400C85D83B00192CA1912
:1019C000002850D043001B18033BCB185E78B44668
:1019D000002E1AD1019E002E42D0E67B002E04D0AC
:1019E00073009B19CB18033B5D70A37B002B00D1C8
:1019F000A573E57300282FD10023537003B0F0BC0A
:101A0000BB46B246A946A046F0BD72006244033A06
:101A10008A185178884600215170894659703200E1
:101A200001002000FFF72CFF43468246002B07D021
:101A30005B0021684344033BCB185A78002A16D137
:101A4000424651462000FFF71BFF2168019BCA193F
:101A5000002BC2D10028CFD043001B18033BCB186A
:101A600000219970C8E7019B002BB6D1C4E7500054
:101A700080180338091848788346484648705870DB
:101A800041462000FFF7FCFE594680462000FFF744
:101A900041FF414602002000FFF7F2FE8046CFE7FB
:101AA000F0B557464546DE464E46E0B583B0019157
:101AB000457B04006F0000687F19033FC15DC219B8
:101AC000002952D04B005B18033BC3185E78B44624
:101AD000002E1CD1019E002E44D0E67B002E04D0A7
:101AE00073009B19C318033B5D70A37B002B00D1CF
:101AF000A573E573002931D1002328005370617369
:101B000003B0F0BCBB46B246A946A046F0BD720089
:101B10006244033A82185078804600205070814613
:101B2000587032002000FFF7ABFE43468246002B80
:101B300007D05B0021684344033BCB185A78002A46
:101B400017D1424651462000FFF79AFE019B010043
:101B50002068C219002BC0D10029CDD04B005B18E2
:101B6000033BC31800209870C6E7019B002BB4D13B
:101B7000C2E7500080180338091848788346484661
:101B80004870587041462000FFF77AFE594680465B
:101B90002000FFF7BFFE414602002000FFF770FE65
:101BA0008046CEE770B5050000292CD0437B8B42E0
:101BB0002ED04C0000686418033C0419A278002A57
:101BC00021D053009B18033BC25CC6188A4202D145
:101BD0001BE0002A08D053009B18033BC3185A7817
:101BE0008A42F6D162785A70002301222800A3703D
:101BF0006370FFF7D5FE697B02002800FFF740FE07
:101C00006873012000E0002070BD63783370EBE75B
:101C100001221900FFF7C4FEF2E7C04610B50C2000
:101C200082B000F0B7F9FEF7CBFD002810D08B4B47
:101C30008B488B498B4A186059609860D96018614D
:101C400059619861D961186259625A6202B010BD37
:101C5000854CA06700F0F4F90122844B1A60636C94
:101C6000012BFCD10322824B1A607F4A936B012B1C
:101C7000FCD1013301217F4A7F480093043300F0F7
:101C800037F905237D4A009301217D4800F030F9A2
:101C90007C4B5A68FF2A02D8802252005A60802268
:101CA000734B6E4C12011A602169002907D06069DC
:101CB00000F0EAFA013043001B18033BFDD2E0229A
:101CC000704B714819680A4002600222196851403D
:101CD00001320A40042102609A681142FCD080213E
:101CE0006A4A09011160802252005A60684B2361E0
:101CF000684B5968FF2900D85A60032201215B4BC9
:101D00001A60644A93681942FCD0E02310680340CB
:101D100061480360126803234A40022113405D4A70
:101D2000036093681942FCD080215C4B0901196063
:101D300080215B4B4900516063615A4B5A68FF2A0E
:101D400000D859608022584B12011A60E1690029BD
:101D500007D0606900F098FA013043001B18033B7C
:101D6000FDD2E0234F4A11680B4050490B6080219F
:101D70004F4B090119608021394B49005160E361E3
:101D80004C4B5A68FF2A00D8596080224A4B1201F6
:101D90001A60216A002907D0606900F075FA0130E5
:101DA00043001B18033BFDD2E023424A11680B405D
:101DB00042490B608021424B0901196080235B007E
:101DC00053608022264BD20223623E4B59689142D7
:101DD00000D25A6080223C4B12011A60616A0029CD
:101DE00007D0606900F050FA013043001B18033B34
:101DF000FDD2E023334A11680B4034490B60802147
:101E0000334B090119608023DB025360154B636279
:101E1000304B5A68FF2A02D8802252005A60802232
:101E20002D4B12011A60A169002907D0606900F0EA
:101E30002BFA013043001B18033BFDD2E023254A57
:101E400011680B4025490B608021254B0901196061
:101E500080235B005360124BA361F7E678140020E7
:101E6000006CDC021BB70000008000403CB000406A
:101E700030B00040002F685900800240008C864737
:101E800000C00240308000403090004030A0004050
:101E9000001BB7003C8000403C9000403CA000404C
:101EA000405973075480004054B0004054900040A3
:101EB00054A000406080004060B00040609000404E
:101EC00060A000406C8000406CB000406C9000400E
:101ED0006CA000404880004048B00040489000405E
:101EE00048A00040014B8000C05870477814002083
:101EF000F8B5040022481E0017000D0000F0C4F9D8
:101F00000100380000F0C0F9069B36041B031E4395
:101F10002368002B22DB1B4B1B49E3185A1E9341FD
:101F20008022920194465B421B0B184A1B036344B8
:101F30001360174A13601F008A689743FBD1C022C1
:101F4000231D92011A4321232560A060136023689A
:101F5000002BFCDA0823E6601360F8BD3F232268FB
:101F60001340AB42D7D1A3681B051B0D8342D2D1CE
:101F7000EE22E368D2021340B342CCD1EDE7C04673
:101F8000001BB7000040FDBF00C0004000E0004063
:101F900000F000408023024A9B000343D362704755
:101FA0000080054010B580241C4BE4051C6000280F
:101FB0001AD001231A4C18431A4BDC611A4C4440C6
:101FC0001C62596298628021144BC9051960174838
:101FD00017490860E021C9041960002A07D180224E
:101FE000144B12061A6010BD0E4BD861EBE753017B
:101FF0009B1A9B009A18802312015B049A4209D213
:1020000013000D490B60074B5A608022094BD20523
:102010001A60E8E7094B1A00F3E7C04600B0054034
:10202000D3C007B0008005402D3FF84FFCFF0100F2
:102030000820014000A00540FC210020FFFFFF0018
:10204000AA23064A1B0113602F230549D360054BC1
:1020500019605368002BFCDA7047C046004002400C
:1020600000B0FA00006002402C4B2D4A70B51A6097
:102070002C4A2D4B2D491A6014008B689C43FBD1D0
:102080002B4D2C4EB54208D2013E761BB60808CD2A
:10209000984723000134B342F9D1FFF7BFFD264A28
:1020A000214B1A60214A9368DB43DB01DD09002BD9
:1020B000F9D14022214B224C224E9A675A671A6767
:1020C000DA66B44208D223682000002B20D00834FE
:1020D000FEF7F0FEB442F6D31B4C1C4EC022B16892
:1020E000200000F0CFF9B460FEF7E2FBFEF7A4FE9B
:1020F000FFF798F8164C174EB44208D2013E361B33
:10210000B60808CC98472B0001359E42F9D170BD26
:102110000834FEF7C1FEB442D5D3DDE700E000404D
:10212000BFCDFBFEFE7F3C0000F0004000C0004041
:102130006014002070140020FFFFFF0100F0014038
:1021400058140020601400200000002000ED00E082
:10215000701400207814002000BEFDE7094A030037
:102160001068002805D00849C3188B4207D81360AF
:10217000704706480449C31810608B42F7D9012004
:102180004042F5E7F41D00200000042078230020E1
:1021900010B5FFF7E1FFC0460FB400B5084883B0A3
:1021A00000F00CFA049B002B07D005A91800019140
:1021B00000F018F8034800F001FA0120FFF7CCFF07
:1021C0002C5600103C56001010B50148FFF7E4FFF4
:1021D0004056001010B5002800D110BD00F0A2F943
:1021E000FBE7C04610B5094A0300146884B0002C10
:1021F00008D0012200910648524203A9A0470120BD
:1022000004B010BD00F0DAF90020F9E7F821002051
:10221000D521001001480421014B1847900E0020E1
:1022200045220010142310B50100188804331B88C0
:10223000984710BD162310B50100188802331B887B
:10224000984710BDF8B54746CE4680B50F1E19D049
:1022500014239946043304000025012698464B4672
:102260001888434621681B88984701C4431E98413B
:10227000013540420640AF42F1D13000C0BCB94602
:10228000B046F8BD0126F8E7114A936F9B0813D2B8
:1022900010665166002905D0FFE7FFE7FFE7516FA1
:1022A000106F704704B5002801D00020C04303F030
:1022B0001BF9002104BDC046F0B5146E556E576F72
:1022C000166FFFF7E5FF1466556657671667F0BD92
:1022D000000000D010B50148FFF75EFF4C5600101B
:1022E000132370B51D78012D15D010DD1B48FFF7A5
:1022F000A1FF1B4C01008022200000F0C3F8022D3A
:1023000006D01848FFF78EFF174B186070BD144CAD
:10231000164BA364F5E7164B114C23606360A36072
:10232000E36023616361A361E36123626362A3628B
:10233000E36223636363A363E36323646364A3646B
:10234000E36423656365A365E36523666366A3664B
:10235000E36623676367A367E367D9E75344000035
:10236000A81500204C3300003C22002075230010EB
:10237000D522001007B5604601880A0A0230DF2A1C
:10238000FAD1C9B2820804D30288408800041043FD
:1023900000E00068014A5050039007BDA8150020D6
:1023A00051434343C9188C46110C83B24B4310B4BC
:1023B000040C614392B280B2504362431C041B0C74
:1023C000001910BC59411304120CC018514161444A
:1023D0007047000010B50148FFF7DEFE845500107D
:1023E000132310B510481C78FFF724FF0100012CBF
:1023F0000AD003DD80220D4800F044F80C48FFF7B6
:1024000011FF0C4B186010BD084C5422200000F046
:1024100039F82200084980322368002B00D121605E
:1024200004349442F8D1E9E75346000040220020EA
:102430004C3300003C220020D523001010B50400CE
:1024400002F08CFB002804D0034B04199C4200D8F6
:1024500010BD0248FFF7A0FE0000042064560010E3
:1024600010B502F085FB10BD01480421014B18474F
:10247000A00E002045220010014B1B6818470000E9
:10248000A00E0020014B5B6818470000A00E002042
:10249000F0B5C64600B5437D07000D001600002BC1
:1024A00038D0002A2EDD00216A1E90466A5C037D2A
:1024B0004C1C00200A2A0CD0A64216D043461B5DB5
:1024C00021000D3B5A4253416A5CDBB24C1C0A2A84
:1024D000F2D1002BF0D1884217DB022110483B6873
:1024E0009847A64207D02000E8E7864203DD311A6C
:1024F0003B6828189847AD19013D2B780D3B5A428F
:1025000053413B7580BCB846F0BD091A3B6828189A
:102510009847E2E70368110028009847F2E7C046B1
:10252000D8580010F0B5CE46474680B583B06B460C
:102530000600DD1D2870FFF7BDF800231A4A1218A7
:102540004B41802109068B4202D30122174B524294
:1025500017490800884602F0DFFF164B81461C68C9
:10256000002C14D0144F02E02469002C0FD02368F3
:10257000002BF9D03B68002B01D0A342F4D12000FE
:1025800001222900FFF784FF2469002CEFD14B467C
:10259000002B05D1300003B0C0BCB946B046F0BD39
:1025A000404602F089FFF5E740420F00FFFFFF7F42
:1025B00058140020E41D0020F01D0020F0B5DE4678
:1025C00057464E464546E0B585B0070002F0F6FD99
:1025D0000600FFF76FF800232B4A12184B418021A9
:1025E00009068B4202D30122284B52422849080097
:1025F0008B4602F091FF274B01901C689A46002CF5
:102600003BD0254B984602ABDD1D0A23994602E0DC
:102610002469002C17D02368002BF9D043461B688F
:10262000002B01D09C42F3D1200032003900FFF78B
:102630002FFF4B462000012229002B70FFF728FFB7
:102640002469002CE7D1019B002B18D153461C684C
:10265000002C06D06368002B0BD098472469002C0F
:10266000F8D1300005B0F0BCBB46B246A946A04642
:10267000F0BD2469002CEDD1F3E70028F1D05846D5
:1026800002F01AFFE2E7C04640420F00FFFFFF7F63
:1026900058140020E41D0020F01D00200A4A136891
:1026A000002B05D10CE01A001B691032002B07D05B
:1026B0009842F8D1002902D1036913600161704783
:1026C0000029FCD01060FAE7E41D002010B500F0EE
:1026D000D9F910BD7047C0460022014B1A707047EF
:1026E000722300204B790020FF2B0BD18B79002B1C
:1026F00008D1CB79012B05D1082A03D9024B8A785E
:1027000009301A707047C0467223002001207047BC
:1027100070B5012901D0012070BD1349537910799A
:1027200009781B02034300209942F5D15378012B0D
:1027300008D0022BF0D1002064220021FFF732FCE8
:102740000120E9E79478D278050012021443D205FB
:1027500002D5620A93401D000448FFF763FD7F2104
:1027600003002140280098477223002055420000B2
:102770000123037000487047DC5800104B780A783A
:102780001B0213438A7810B512041A43CB781B0638
:1027900013439622D200934200D010BD0348FFF7A6
:1027A00041FD0021030008009847C0465542000043
:1027B000024B1860024B19607047C046701D002024
:1027C000741D002010B5024B1878FEF7AFF810BD4D
:1027D00073230020114B70B51A68002A1AD0EFF34A
:1027E000108172B610680028FCD0BFF35F8F002004
:1027F0000B4A596010701B68BFF35F8F186081F33C
:10280000108800240025074B1878FEF78FF8290060
:10281000200070BDFA240025A400F4E71C2200204B
:10282000742300207323002070B5040000200E00E4
:1028300001F0E8FA002836D0002001F0FBFA002869
:1028400031D0FEF737FF0023184A12184B41802180
:1028500009068B4216D2164D280002F05DFE0028B4
:1028600021D0002001F0CEFA00280FD10120002154
:10287000404200F0C1FC03246442280002F01CFE28
:10288000200070BD01220B4B5242E4E7002001F012
:10289000D1FA0028EAD021003200002001F0D6FA57
:1028A000041EEAD1E7E703246442E9E740420F004F
:1028B00044230020FFFFFF7FF8B5DE46574680B572
:1028C00005000C00FEF7F6FE0023374A12184B41B4
:1028D000802109068B4202D30122344B52423449F3
:1028E00008008A4602F018FE002803D1C0BCBB468F
:1028F000B246F8BD002001F085FA00284AD0002633
:10290000002C43DD2B4B9B4614E0A919002001F05D
:1029100011FB070001200021404200F06DFC002067
:1029200001F0CCFAFEF7C6FE224BF619186059608A
:10293000B4422BDD002001F017FBA71B0200B842B8
:1029400000DD3A00002AE0D101200021404200F0E1
:1029500053FC002001F0B2FA002001F053FA0028E5
:1029600014D0002001F000FB0028E1D1FEF7A2FE08
:102970005B460F001A685B68002184460E481218F7
:102980004B419F4202D8D3D19445D1D9504602F051
:1029900093FDABE700200021064B186059605046BC
:1029A00002F08AFDA2E7C04640420F00FFFFFF7F12
:1029B00044230020A015002020A1070010B5244CBE
:1029C00084B00021200002F097FD00281CD1214B8B
:1029D0001A68002A16D0EFF3108172B6106800282A
:1029E000FCD0BFF35F8F01241B48596002781B683D
:1029F000D2B20470BFF35F8F0020186081F310889B
:102A0000002A0AD004B010BD01200021404200F08D
:102A1000F3FB200002F050FDF4E7FEF739FC040060
:102A2000FEF748FEFA220023920012184B41802143
:102A300009068B4202D30122084B52420121029126
:102A400000210191064920000091FEF725FCD9E7FD
:102A5000442300201C22002074230020FFFFFF7F5E
:102A6000D5270010054B10B51868002804D0044B7A
:102A70000022196801F036F810BDC046701D002014
:102A8000741D0020D02310B51B0684B01C68FEF70F
:102A9000FFFBFEF7BFFCA04202D0002004B010BD37
:102AA000274B1B7801F042FC2648FEF7F5F9012080
:102AB000FEF7D4F9FF23244C244920701840FDF779
:102AC0005BFF20780121FDF71FFF0520FDF736FF92
:102AD000002827D1FEF7DCFB0400FEF7EBFDFA220D
:102AE0000023920012184B41802109068B4202D329
:102AF0000122174B524201210291002101911549F7
:102B000020000091FEF7C8FB0822040000211248B3
:102B1000FFF7B2FC002CC0DB10480121FFF7BEFD1F
:102B20000120BBE700220E490520FDF74FFFFDF70E
:102B3000CDFE094B01001800FEF7D8F9ECE7C046BE
:102B4000485B00104423002073230020BD2900109F
:102B5000FFFFFF7FD52700101C220020B00E0020B1
:102B6000C5270010004870476C5900100048704796
:102B70001859001010B5040017480378002B20D016
:102B8000002C06D1154B16484380063BFF3B0380C3
:102B900010BD052C19D8134BA400E058124901238D
:102BA000013804E001330A800231142B0FD0C25CDB
:102BB000002AF7D1C022DBB25B0092000848134321
:102BC000E5E7112100F01AF8DAE70020E0E7CA2370
:102BD00003489B00DBE7C0465C230020090400009B
:102BE000BC1D002000590010BE1D002010B5024879
:102BF00000F0D8F810BDC0463422002030B54B1E7E
:102C0000012900D1A7E0664A11780D092C00303463
:102C10009F2900D9A2E00470012B00D1BEE00F2152
:102C2000147821400C003034092900D998E0447010
:102C3000022B00D1B2E054782509290030319F2CB5
:102C400000D990E08170032B00D1A7E00F21214033
:102C50000C003034092900D987E0C470042B00D15E
:102C60009CE094782509290030319F2C00D97FE021
:102C70000171052B00D191E00F2121400C0030346F
:102C8000092900D976E04471062B00D186E0D4787A
:102C90002509290030319F2C00D96EE08171072B66
:102CA00000D17BE00F2121400C003034092966D887
:102CB000C471082B00D171E0147925092900303145
:102CC0009F2C5FD80172092B68D00F2121400C0086
:102CD0003034092958D844720A2B5FD05479250919
:102CE000290030319F2C52D881720B2B56D00F21E6
:102CF00021400C00303409294BD8C4720C2B4DD024
:102D000094792509290030319F2C00D907310173AE
:102D10000D2B43D00F2121400C003034092901D95B
:102D200037310C0044730E2B38D0D1790C092200B6
:102D300030329F2900D9073282730F2B2ED00F22F9
:102D40000A4011003731092A01D830321100C1730D
:102D5000102B23D010300023037030BD07345AE706
:102D600037310C0063E707316CE737310C0074E74B
:102D700007317DE737310C0085E707318EE73731C2
:102D80000C0095E707319DE737310C00A3E70731C9
:102D9000AAE737310C00C4720C2BB1D1C018DAE7A6
:102DA0003422002010B588B004000D2200216846AE
:102DB000FFF762FB0D22002104A8FFF75DFB4B2308
:102DC0006A466846137004A90D2202F06DFB1521B6
:102DD000082220006944FFF755FB08B010BDC0462B
:102DE00010B501210520FDF78FFD10BD10B50022A3
:102DF0000021024800F058F910BDC046181E0020FE
:102E00008022024B5202DA647047C0460020115003
:102E1000F0B5C64600B5060000F020F90C231B4DA6
:102E2000FF22AB6705201A49FDF7D0FD40239846E5
:102E3000184C402200212000FFF71EFB43460127CB
:102E4000238321210023144A6770A2601360635416
:102E50005F31618441462187053963540F4A104927
:102E60006360E260A1620B606362E26202F064FB95
:102E700080239B052F64EB6490230A4A3000EA50BC
:102E8000FFF7BEFF80BCB846F0BDC0460000115041
:102E9000A1040020F81D00208400105000011050F3
:102EA0008000105010D001000B785B0602D14B78E7
:102EB000052B00D070478A78014B1A60FAE7C046AC
:102EC00000001150F0B5C64600B5CC7888780A7974
:102ED0004B797F21A40701401B02C50913434F0012
:102EE000A20F1400324E7A195201B21890700120CC
:102EF0006840507000205B055B0DD0701383D47662
:102F00008046CA00012D33D02A4884468801624495
:102F10008446B4446046826040461060002933D045
:102F2000254AC90090466246414451603F223F33E2
:102F30009343022C00D15B0020487A1901685201AA
:102F4000B218D1601E4ACB18036051405A4080230A
:102F500088465B019A4228D84346A4061C43802336
:102F60007F197F01F61972681B062343136011E075
:102F700014488446880162448446B44460468262B0
:102F800040461060002909D100236D0175196B605E
:102F90000D4BEB60012080BCB846F0BD084AC9006B
:102FA0009046624641445162C0E7FFF70DF9D3E70E
:102FB000F81D002084001050040010500022002052
:102FC00000001050800010500001105010B502F0A9
:102FD000B3FA10BD10B57F200C0020404000E4097A
:102FE000110000191A00034B4001C01800F05CF8F2
:102FF000012010BDF81D00207F23180010B50840E7
:10300000CA090B4203D107497D3B9B1A8B664000DE
:1030100080188022044B40010021C018120102F0E8
:1030200093FA10BD00201150F81D00207F221300DC
:1030300010B50B400A4200D110BDC9095B005B18F6
:1030400004485B01C018002300220349C37002F04A
:103050007BFAF1E7F81D0020FFF7FFFF80220D4B00
:10306000520410B51A600C4B0C491A6010008B68A2
:103070009843FBD10A4C9C2200212000FFF7FCF969
:103080008022002152010748FFF7F6F90923636700
:1030900010BDC04600E0004000F0004000C000400D
:1030A0000000115000001050002310B5C3820133FE
:1030B000828283760161040002F00EFA002804D0B7
:1030C00080219023074A8902D150200002F0FCF9A8
:1030D000002802D00123237710BD200002F024FA3B
:1030E000FAE7C04600201150024B5878431E984121
:1030F000C0B27047441B0020024B18784007C00F35
:103100007047C046441B0020034B1878FF38431E0D
:103110009841C0B27047C046EC0E0020F8B5CE46CC
:10312000474680B52A4E05003378FF2B01D0012099
:103130003DE0532200212748FFF79EF9264C20004E
:10314000FDF7AAFE254B1C60254C2000143CFDF722
:10315000BFFE200001F0CCFB224B234F1C60234B11
:103160009846002F1ED01800FFF702FB204B186076
:1031700043461B781F4A00249146002F14D04A462C
:10318000A3421AD89047434601341B78E4B2A342C5
:10319000F3D228003570FFF73BFE2800FFF720FE32
:1031A000012004E01B78E5E7002C04D00020C0BC1F
:1031B000B946B046F8BD0F4AE4E70D4A630012680D
:1031C0001B19DB00D318002BF0D01A68DAE7C046D1
:1031D000EC0E0020441B0020FC1A0020981B00204D
:1031E000E40E00209C1B0020712700106D2300209E
:1031F0001C180020813F0010F0B5DE4657464E46B1
:103200004546E0B591B001F097F8002800D1FCE008
:10321000C34BC44E9946C44B0DAC0293C34B9B4663
:103220004B46019335686A69EFF3108172B61368F3
:10323000002BFCD0BFF35F8FA9612800210001F0B3
:1032400085F96A69AB69BFF35F8F0021116083F371
:103250001088002800D1D8E06378082BE2D8019AC2
:103260009B00D3589F466368002BDBD0A06898472B
:10327000D8E77F202179AC4D08404300CA09EB18FC
:103280009B181D0001273035EA78BA43EA70EA78C6
:103290000337BA43EA70002800D1F2E0A44FDB7C88
:1032A000002F06D0A34A1278934200D2F1E09B1A75
:1032B000DBB2002B00D0A8E09F4DA3686279207894
:1032C000A847AFE70122984D01202B780421134332
:1032D0002B703323EA5C8243EA54EA5C8A43EA5463
:1032E0000133EA5C8243EA54EA5C00208A43EA54F0
:1032F00023789A4600F0F8FC602223791A40602A6D
:1033000000D1B5E0402A00D1AFE0DB06DB0E012B97
:1033100000D1D3E0022B00D120E1002B00D0A7E0A8
:10332000202A00D153E1002A00D0A1E06379092BC3
:1033300000D99DE0814A9B00D3589F46029B1B7891
:10334000DB0700D46EE77E4B002B00D16AE700E07C
:1033500000BF67E7744D2B78DB0700D462E7794B39
:10336000002B00D15EE728780007C00F00E000BF07
:1033700058E7002523786E4F9A466E4B98461B7887
:10338000002F49D05A46AB4263D850469047434637
:1033900001351B78EDB2AB42F2D2634D53220021CE
:1033A0002800FFF769F81022FF21E81CFFF764F8F6
:1033B00028002022FF211330FFF75EF82EE00025C1
:1033C00023785B4F9A465B4B98461B78002F2ED094
:1033D0005A469D4233D350469047434601351B78A9
:1033E000EDB2AB42F2D2504D532200212800FFF73C
:1033F00043F81022FF21E81CFFF73EF828002022A6
:10340000FF211330FFF738F814E011B0F0BCBB46D1
:10341000B246A946A046F0BD002D38D000F05AFCB7
:10342000494B002B00D1FDE600E000BFFAE6002D7D
:1034300019D03D4D00F04EFC2379AB70F2E6434AC3
:103440006B0012685B19DB00D318002BF1D05A68AF
:10345000C1E73E4A6B0012685B19DB00D318002BF2
:10346000DCD05A6891E7314AB5E7394800281AD1CB
:1034700020780021FFF7C0FD80212078FFF7BCFDF8
:10348000D0E6A3686279207800F042FCCAE6274AB9
:103490007BE72E4A58001268C318DB00D318002BB4
:1034A000B3D01D6909E700F01FFC012150460EAAA8
:1034B00000E000BF002800D0B4E6D9E7237A0F2B44
:1034C000D6D81B4FEB18DB78002F06D0194A12789C
:1034D000934200D29CE09B1ADBB2002BC8D11D485E
:1034E0001D4D00F001FC01215046EB680EAA9847E3
:1034F000002800D096E66022150023791D401A426C
:10350000B6D163790A3B012BB2D800F0EDFB6379A9
:103510000A2B00D17DE150460EA900F06FFB81E639
:10352000805900109C1B0020441B0020FD3F001010
:10353000712700106D230020F1410010A4590010E4
:103540000000000000000000000000001C18002027
:10355000000000000D4100100C5A00107023217A69
:103560000B4285D1C80984460F330B405B00E81835
:103570006044C07CB14F8046002F07D0B04800782F
:10358000804550D34746381AC0B28046404600288E
:103590003AD1002A00D0F5E0AA4A90466779022085
:1035A0003A008243012A00D1F0E0002F00D05FE70B
:1035B000EB1863443033DB780CAA9B07DB0F023235
:1035C0001380504602230EA900F02EFB2AE6237A30
:1035D0000F2B00D94CE7994FEB18DB78002F06D062
:1035E000974A1278934200D2F3E09B1ADBB2002B89
:1035F00000D03DE79448934D00F076FB0121504602
:10360000EB680EAA984755E79046002AC6D02FE7E8
:103610008E4A59001568CB18DB00ED18002D00D13B
:1036200026E7E8685DE7474688487F00006847442A
:103630008046FF00B844002AB0D04346002B00D19A
:1036400016E7D86800F050FB434601215046DB687E
:103650000EAA98472EE7A37903931A006B789A4233
:1036600007D06B78002B00D058E1039B002B00D0D3
:10367000F8E0039B50460EA96B7000F0BFFAD1E54D
:103680006B780CAA02321370504601230EA900F089
:10369000CBFAC7E5E3881A0AD8B20F2A00D9E7E6C1
:1036A0006B499300CB589F460EA800F023FB504671
:1036B000A179FFF79BFB02222B7813432B70B1E516
:1036C000E388012B00D0D3E608222B7850469343A1
:1036D0000EA92B7000F092FAA4E5022029780CAB19
:1036E0009A1C8B068908DB0F01400B4368E7E388CF
:1036F000012B00D0BCE608222B78504613430EA9BC
:103700002B7000F07BFA8DE5524B002B00D1AFE619
:1037100000E000BF021E00D1AAE6D37891781B0218
:103720000B4350460EA900F07FFAC3E64A4B002B2C
:1037300000D19DE600E000BF021E00D198E6504691
:1037400013780EA900F070FAB4E62189FFF712FA97
:10375000021EF4D18CE6022A00D12DE13F4B002B52
:1037600000D185E600E000BF0200002A00D17FE61C
:10377000D3E7FFF7F7F9122302000EA9504600F035
:1037800053FA97E62F4B304898465BE7E288002AC9
:1037900009D1334A1078012F26D0EF18674430370B
:1037A000FB789B073ED54346002B00D13AE5D8680D
:1037B00000F09AFA43460121DB680EAA504698476A
:1037C000002000F091FA3423EB5CDB0700D529E5FB
:1037D000A1E61E4A59001568CB18DB00ED18002D34
:1037E00000D145E6E86807E730229146EB186344CC
:1037F00099444B46DB789B07D5D5FFF717FC4B4622
:103800000222DB7893434A46D370D378BB43D3700C
:10381000C9E70CAB9A1C504601230EA9157000F0A5
:1038200003FAFFE4FFF7E8FB0222FB7813430122CF
:10383000FB70FB781343FB70B5E7C046712700109F
:103840006D2300200C5A00100D4100101C180020A0
:10385000CC59001000000000000000000000000033
:10386000EC0E0020581EC0B2FFF780F9002800D1EE
:10387000FEE543780793022B00D0F9E50121C279D8
:10388000B146931152110B400A4012015B011343E0
:103890002A782F318A4313432B700923984680449A
:1038A0004746A846C37882781B021343C318049383
:1038B0005C4B0993049BBB4200D881E07B780122DA
:1038C0000B2B02D13B78FA78FF187B78042B23D19D
:1038D0000025049B0B92DB1B9BB20593524B19787E
:1038E0000693524B0A93524B08930A9B002B52D0DB
:1038F000099B089E8D4245D339005046059A98474A
:103900008446082802D9059A824262D2069B013574
:103910001978EDB2A942E8D24E46A9E55046FFF724
:1039200055FB00229146434AAB7805922A004D464A
:10393000914604933C4B3D4F98461B78002F1BD07B
:10394000059A9D422CD350469047434601351B783B
:10395000EDB2AB42F2D24D46532200212800FEF7D1
:103960008BFD1022FF213448FEF786FD2022FF2127
:103970003248FEF781FD02E0002D1BD04D46049B2E
:10398000AB7072E618232E4A6B431668F618002EA9
:10399000C2D0B368B0E7002DBED1224B244EABE7B6
:1039A000274A6B0012685B19DB00D318002BE5D0A7
:1039B0005A68C8E71F4AC6E7FFF7D8F80200D4E6FE
:1039C000204B45464E46002B00D152E600E000BF9A
:1039D0004FE60B9A012A1FD00021464609E0BB782A
:1039E000CB18DBB2F318D878FF2895D10131DD7000
:1039F000C9B29142F3D1B04666462B00390032007D
:103A00000E4800F01FFDB446069B67441B78AB428E
:103A100000D34FE74E462BE5024BB1689942DBD10C
:103A2000079AD9E7294000106D2300207127001064
:103A30000C5A0010FD3F0010471B0020571B0020B0
:103A40001C18002000000000F8B557464E46DE4620
:103A500045460C00E0B516001F00002A3CD01F4B65
:103A600000259A46702399461D4B9B4617E05B46FE
:103A70002000997800F0A8FC00281FD021004046C3
:103A8000FFF720FA002819D0A378DA09012A1CD000
:103A90000A9A013513702378E418B5421CDA63786A
:103AA000052B0BD1E3789B079B0FBB4206D15346F6
:103AB0004A461B789846A3781A42D8D00020F0BC1A
:103AC000BB46B246A946A046F8BD0B9A0135137015
:103AD0002378E418B542E2DB0120F0E7EC0E002089
:103AE000441B0020802310B51B0184B001930E4BB2
:103AF00002901C6803916269EFF3108372B611683B
:103B00000029FCD0BFF35F8FA361200001A900F062
:103B1000DFFD6269A369BFF35F8F0021116083F34A
:103B2000108804B010BDC0469C1B0020702270B5E8
:103B3000094B0C001D788B781A4201D0002070BD13
:103B4000064B2000997800F03FFC0028F6D02100B9
:103B50002800FFF7B7F9F2E7EC0E0020441B002025
:103B60000B007F2010B51840DB0933334000044AB6
:103B7000C018044B1168C01800F0E2FB10BDC0462D
:103B8000981B0020441B00200B007F2010B518401C
:103B9000DB0933334000044AC018044B1168C018D5
:103BA00000F0F6FB10BDC046981B0020441B00200F
:103BB00070B57F240F480C4064000419CD096419C6
:103BC0003034E078C00701D5002070BD0126E578CB
:103BD000094835430078E570FFF7FCF90028F4D177
:103BE0000122E3789343E370E37803329343E37075
:103BF000EAE7C046441B0020EC0E002070B5094CDB
:103C00000600082220000D00FEF73CFC0023802166
:103C1000E360A3602B783000994300220023FFF774
:103C2000C7FF70BDE81A0020F8B5CE46474690465B
:103C3000264E80B58146082230000D001F00FEF799
:103C400021FC4346B3600023F381EC79AB79240275
:103C50001C43231CBC4200D93B1C9FB2B381002CE7
:103C60000ED0002F18D04346002B2CD03B1C402FE9
:103C70001BD89FB233787F2B1CD80021144A0FE049
:103C800080212B780022994348460023FFF790FFBC
:103C9000C0BCB946B046F8BD7F23002231789943B5
:103CA0003B004846FFF784FFF2E740239FB233789A
:103CB0007F2BE2D9064C3A0041462000FEF7E2FB9A
:103CC00080212200ECE70020E2E7C046E81A00204D
:103CD000041B002010B5142200210248FEF7CCFB83
:103CE00010BDC046E81A0020014B18617047C0465D
:103CF000E81A002010B5054C010008222000FEF74C
:103D0000C1FB0023A360E36010BDC046E81A002099
:103D100070B5394C1D0023780600DA09C9098A42BA
:103D200013D00020002D00D070BD344B002B03D0E9
:103D300021003000FFF7B8F82369002B03D02200E0
:103D40000321300098470120EEE7A0687F2B05D8BB
:103D5000002834D02A002A49FEF794FBE289A168A2
:103D60005219E38892B24919E281A160934214D0BA
:103D70003F2D12D9A389981A051C80B240282AD851
:103D80002078ADB27F2828D800219A4232D01C4A30
:103D90002B003000FFF70CFFC6E72369002B05D08E
:103DA000220002213000984700280AD08021237881
:103DB0000022994330000023FFF7FAFEB4E7002009
:103DC000B2E700213000FFF717F930008021FFF73C
:103DD00013F90120A8E74025D2E79A4207D0084C02
:103DE0002A002000FEF74EFB80212200D0E7802130
:103DF0000022CDE70022CBE7E81A0020A92E001010
:103E0000041B002010B50400FFF76EF9002801D153
:103E1000002010BDFFF770F90028F9D1B2229200FE
:103E20006243034B01309B181B791840F1E7C046F1
:103E300020180020B2239B00434310B502481818F5
:103E400000F050FB10BDC04630180020F0B5B22580
:103E5000AD0045432C00C646174F1034E41900B599
:103E6000200092B200F0C0FB0600200000F058FBDA
:103E70003F2803D8300080BCB846F0BD7B19002035
:103E8000D9789846FFF76CFE0028F3D0200000F0A8
:103E900047FB3F280AD992239B00EA184346D219D0
:103EA000D97800204023FFF783FEE3E74346002054
:103EB000D978FFF769FEDDE720180020F8B5040087
:103EC000FFF712F9002801D10020F8BDFFF714F91F
:103ED0000028F9D1B2239B005C432500144E243501
:103EE000AD19280000F0FEFA0028EDD037190020A7
:103EF000B978FFF735FE0028E6D0A2239B009C4648
:103F00006444A41921002800402200F06DFBB97818
:103F1000051E08D0030022000020FFF749FE0028FC
:103F2000D2D02800D1E70020FFF72EFECCE7C04614
:103F30002018002070B5B224A4004443094B0500AA
:103F4000E418200092B200F017FC0600200000F0F8
:103F5000C9FA3F2801D8300070BD2800FFF7AEFF36
:103F6000F9E7C04644180020B2239B00434310B534
:103F70000248181800F0D4FA10BDC04644180020BA
:103F8000B222F0B51B4C83B0002120009200FEF756
:103F900073FAFF236371184B80260025E380012705
:103FA0000823210020007600237332002781383156
:103FB0000095073B103000F05FFA210020003931F6
:103FC0003200FF3101230097243000F055FA8E2390
:103FD0009B00E6183000FCF75FFF90239B002662F1
:103FE000E6183000E561FCF757FF2663656303B010
:103FF000F0BDC0462018002000C2FFFF10B5094CDC
:10400000052200212000FEF737FA2000243410306A
:1040100000F06EFC200000F06BFC0121200000F09D
:1040200087FC10BD20180020F0B54B79060083B046
:10403000022B02D18B79022B03D00025280003B07C
:10404000F0BD2F4FBB78002BF7D18B7809253B7043
:104050000C780C196378242B0BD1082A02D81FE0A6
:10406000AA421DD32378E4185D196378ADB2242BDE
:10407000F6D0052B31D0042B12D163790A2B0FD146
:10408000204B277801930133009302220223300052
:10409000E119FFF7D9FC0028CFD00E35ED19ADB2EC
:1040A000194C200000F03CFA3F28C7D92600103EEA
:1040B0000020F178FFF754FD0028BFD0200000F069
:1040C0002FFA3F2817D98E239B00E218F93BF1788D
:1040D000FF3B0020FFF76CFDB0E721003000FFF749
:1040E00025FD0028A9D0A3787B7023785D19E418FA
:1040F0006378ADB2BFE7F1780020FFF745FD9DE79B
:10410000201800202218002030180020F8B5602365
:1041100014001278050013400020202B12D12F4AE2
:104120006379277916781B023B439E420AD1637854
:10413000222B1AD007D8202B3CD0212B02D10129C9
:1041400030D00120F8BD232BFCD101293FD0032919
:10415000F7D1234B002BF4D0E178A378090200209B
:10416000194300E000BF0120ECE701292FD003290B
:10417000E7D101252E00A378E478023924021C43FC
:104180001471264024321000714000F0D1FB154B11
:10419000002BD6D06208002031002A4000E000BF8A
:1041A0000120CFE70723210028000F4AFFF73CFD3D
:1041B0000120C7E70129F5D00329C2D10B4B002B01
:1041C000BFD00020911DFEF7D9FA0120BAE72100E7
:1041D0002800FFF713FD0120B4E7C0462018002097
:1041E0000000000000000000261800207D270010BD
:1041F000F8B545465746DE464E46E0B5464D1F00EB
:10420000EA7880460C00AB788A4246D000208B4288
:104210001AD0F0BCBB46B246A946A046F8BD3F4BFB
:10422000002B04D0484600F073F900286CD04846B3
:1042300000F076F93F2807D94E46103E0020F1786D
:10424000FFF78EFC002851D1AB78A34201D00120AA
:10425000DFE7334B002B02D0002000E000BF00203E
:10426000FFF72CFE0028F2D12E4C200000F03AF986
:104270000028ECD1002FEAD0BF06E8D1243C40460C
:10428000A178FFF76DFC0028E1D000230022404612
:10429000A178FFF78DFC0120BBE792239B00EE186D
:1042A00010239B46AB4431005846BAB200F064FA82
:1042B0001D4BD946002BB2D06B79FF2BAFD0002F0E
:1042C000ADD0F219924603E00136B245A7D06B7922
:1042D00032789A42F8D1484600F01AF90028F3D112
:1042E0004B46103B597900E000BFEDE7484600F02F
:1042F00017F93F280BD98E2292004023F1784A44C7
:104300000020FFF755FC9FE7FEF7ACFB8FE7F17845
:104310000020FFF739FC97E720180020652A0010DD
:1043200000000000441800200000000010B500202C
:10433000FEF7F4FE10BDC04610B5FEF7E5FE10BD59
:10434000037870B5DB0704000E00DD0F002B17D1DA
:1043500003785B0701D5280070BD01213000494278
:1043600001F0D2F82378DB07DD0F002B0AD1237888
:104370005B0708D40422237801251343237002E04D
:104380000025E8E70025300001F096F8E3E7C04695
:1043900070B50C00012106004942200001F0B4F87C
:1043A00033785B07DD0F002B04DB200001F084F87D
:1043B000280070BD3378DB0704D40422337893439C
:1043C0003370F2E70025F0E7437902791B021343CB
:1043D000C2785B0592075B0D920F022A1DD0032A5B
:1043E0000CD00020012A08D102394A425141124A18
:1043F0009446614499424041C0B2704702394A1E16
:1044000091410E4A494211408022D2009446002038
:10441000614499424041C0B2EFE7022905D0002033
:1044200040229A424041C0B2E7E7054A9818434209
:104430005841C0B2E1E7C046FF03000040FCFFFF67
:1044400000FEFFFF8A1870B5914207D27F264C7894
:10445000052C04D00C7809198A42F8D870BD3400B4
:104460008D782C4064000419ED0963550C78091906
:104470008A42ECD8F2E7C046F0B5C64600B5040063
:1044800006A805788020884617001E000002824298
:1044900026D8E068002803D00121494201F034F811
:1044A0002069002803D00121494201F02DF843463C
:1044B000236073045B0CED031D430023E0686381FC
:1044C000A780E5802381002801D000F0F5FF206956
:1044D000002801D000F0F0FF012080BCB846F0BDFC
:1044E0000020FAE710B5048941898288A3B288B216
:1044F0008C4207D31B1A9BB2101C9A4200D9181C7D
:1045000080B210BD5100091A5B189BB2F4E7C04697
:1045100003894089181A43425841C0B27047C046C7
:1045200010B5048941898288A3B288B28C4207D32E
:104530001B1A9BB200209A4201D9D21A90B210BD28
:104540005100091A5B189BB2F4E7C04670B504002D
:1045500000690E00002803D00121494200F0D4FF79
:1045600025896089A288A9B283B285422CD3CD1A4D
:10457000ADB2002D2ED0AA4208D2914230D3891A72
:104580008BB263819A4203D89B1A9BB29A42FBD9A1
:10459000E28821685204520C53433000C918FDF7D9
:1045A00071FF63890125591C89B2A2888B4213D9F6
:1045B00000215200891A89B220696181002801D046
:1045C00000F07AFF280070BD5500ED1A4D19ADB20C
:1045D000002DD0D1618989B252009142ECDBE9E72C
:1045E00089188BB26381CDE7F0B546464F46D64673
:1045F000C0B50600006989469046002803D0012115
:10460000494200F081FF31897289B5888BB294B23A
:10461000914254D31F1BBFB2002F4AD0BD4205D2D6
:10462000AB4251D25B199CB22F0074814346B8450E
:104630003DD89FB2A54203D8641BA4B2A542FBD9C2
:10464000F28831685204520C904662432B1B9BB295
:10465000891842469F4225D953439BB21A004846C7
:104660009A46FDF70FFF434648467D1B64195C439D
:1046700031685044A2B2FDF705FF7189B588CB19A6
:104680009BB26A00994216D99B1A9BB2306973811A
:10469000002801D000F010FF3800E0BCBA46B14657
:1046A000A846F0BD48467A43FDF7ECFEE5E73B1C23
:1046B000BFE773899BB26A009342E7DBE4E76F00D0
:1046C0003F1BDF19BFB2A7E75B1B9CB2ACE7C0463C
:1046D000F8B50400C0680E00002803D0012149424B
:1046E00000F012FF258920896189A288ADB283B2CA
:1046F0008FB2884229D3DB1B9BB29A4209D8E77953
:10470000FF0906D1E068002801D000F0D5FE38008E
:10471000F8BD95421ED32B009B1A9BB29342FBD24D
:10472000E28820685204520C53433100C018FDF750
:10473000A9FE6B1C9BB2A2889D4218D9002352008F
:104740009B1A9BB201272381DCE75100C91B5B1830
:104750009BB2D2E72B00E28820685204520C5343EC
:104760003100C018FDF78EFE0135A288ABB25200B1
:104770009342E7DBE4E7C046F0B557464546DE46E0
:104780004E46E0B5140005000F0083B0002A75D036
:10479000C068002803D00121494200F0B5FE2E89EF
:1047A000E9796A89AB88B6B292B2C90945D1964215
:1047B00000D36DE059008A1AB21892B200218946DE
:1047C0009A4234D29A1A111C92B2A24200D9211CE8
:1047D0008AB29146EA885204520C90464A46B21870
:1047E00092B292464A46D21A92B2934634009E4200
:1047F00003D3E41AA4B29C42FBD242466243286827
:104800001B1B9BB2801842464B4554D34B46390084
:104810005A43FDF737FEAB885B00B24501D39A459A
:1048200003DB5246D31A9BB29A4653462B81E86863
:10483000002825D000F040FE22E0E9884904490C18
:1048400088469C4227D2964247D3B11A89B28C46F9
:104850005800E11A89B28B4661460919814208DB8A
:10486000D11889B20E1BB6B28A46B2423BD9361A6B
:10487000B6B2A21992B29246A146B7E70023994672
:10488000484603B0F0BCBB46B246A946A046F0BDC0
:10489000B21A92B292E700218946002BC7D0414656
:1048A000E41A4C431600D118002289B28A46994670
:1048B00093463F199AE753439BB21A0039005C4470
:1048C0000193FDF7DFFD414622004A43019B286822
:1048D00092B2F918FDF7D6FD9DE75800811A7118BC
:1048E00089B28C46B5E7A146B04200DD7EE7BEE75F
:1048F00010B50400C068002803D00121494200F02F
:1049000003FE2069002803D00121494200F0FCFD8C
:104910000023E06863812381002801D000F0CCFDF2
:104920002069002801D000F0C7FD012010BDC0465D
:1049300070B50400C0680D00002803D00121494271
:1049400000F0E2FD2069002803D00121494200F077
:10495000DBFD7F21E379ED011940E0682943E17136
:10496000002801D000F0A8FD2069002801D000F047
:10497000A3FD012070BDC046F8B5DE4657464E4641
:1049800045468346E0B505200C00FDF7ABFA06006E
:10499000600821008019FDF777FC430098468044A9
:1049A000070005214046FDF76FFC3B1A9A46204B55
:1049B0008146700080199C4234D81E49FDF764FC82
:1049C000451C5B461C6800230422E3662368012023
:1049D000534002321A4080235B0123431A6053463E
:1049E000E3614B46236243464F2B03D95021404697
:1049F000FDF74AFCA023E050E36F22005D408023D6
:104A00007C322D045B0113432D0C1D600123390002
:104A10003000E366FDF738FCF0BCBB46B246A94661
:104A2000A046F8BD0449FDF72FFC451CC9E7C04668
:104A30003F420F008096980040787D010F4A70B584
:104A4000821A531E9A410E4BD20008321A600D4B47
:104A50000D4C1A601500A3689D432B1EFAD16624E5
:104A60000268FF340571D5661460633C8833FF3CEF
:104A7000D5639563D450FFF77FFF70BDF80E00201B
:104A800000E0004000F0004000C00040F0B5574694
:104A90004E46DE4645468446E0B583B01F000CAB6B
:104AA00018786346914600221B680190DA6601324D
:104AB0005960DA66002F4FDD7A1E90466246127901
:104AC00001269202802493463A00464076028025D1
:104AD0003700002046461021A2469046AD00841BB8
:104AE000624254414A4664423C4000945C46125C37
:104AF0002243009C22431A615A6B1142FCD0524659
:104B00009C58002C10D1B04221D000220130934695
:104B10008045E4D16346019A1A7103B0F0BCBB46EC
:104B2000B246A946A046F0BD5A6D012293465A6B83
:104B30002A42FCD01A6E5A46002AE6D0002C03D036
:104B4000E30701D42407E5D402204042E2E7019ABA
:104B5000002ADAD19346EAE70020DBE710B5034BE1
:104B60000100186800F00EF810BDC04610130020B8
:104B700010B5034B0100186800F0A8FB10BDC0463B
:104B800010130020F0B54E464546DE465746E0B5C8
:104B90000D000B35060085B0162D27D8102900D939
:104BA000DAE000F0D1FA102518230221C74FFB18D4
:104BB0001A005C68083A944200D146E10322636817
:104BC000A1689343E268CA6091600121E3185A68C2
:104BD00030000A435A6000F0BFFA2000083005B0E8
:104BE000F0BCBB46B246A946A046F0BD07239D4394
:104BF00000D5B1E0A94200D9AEE000F0A5FAFC234F
:104C00005B009D4200D29AE1690A00D1A8E0042924
:104C100000D94FE138239846A90988443931CB009F
:104C2000082252429446A94FFB189C446346DC6814
:104C3000A44514D0032399460B0061469C4607E027
:104C4000E068002A00DBFAE0814200D1FBE00400CA
:104C50004A46636893435A1B0F2AF1DD41463A00E6
:104C60003C690832944200D1D8E003206368834352
:104C7000581B0F2800DD66E13A617A610028A4DA4A
:104C80007A68904680229200934200D3E3E0DA08EB
:104C9000580901238340404618438046D300DB195E
:104CA0009A687860E360A2609C60D46001208B10F9
:104CB000984040455CD8434603420AD103239943B8
:104CC000434640000431034203D140000431034213
:104CD000FBD00323B3469C460E00B8460190F0007B
:104CE00040440100B246CB680BE064465A681F009E
:104CF000A243DB68541B0F2C00DDF3E0002C00DB2B
:104D00000DE19942F1D101239946CA445346083135
:104D10009B07E8D1032205E003680838013E83427F
:104D200000D00AE23242F7D14346019A5B689343CE
:104D300042465360019A520001929A4216D8002AC4
:104D400006D113E004229146019ACA44520001920E
:104D50001342F7D05646C2E70C23002033603EE7EB
:104D600080233F22402190469B0059E75E464746FC
:104D70000322BC68636893439946AB4202D35B1B32
:104D80000F2B4EDC23004B440293514B08201B6831
:104D900010335B19019300F003FA4E4903900B683E
:104DA0008B46013306D08446019B4242013B63445B
:104DB000134001933000019900F0D6F903008046BA
:104DC000013300D1DDE0029B834200D9D7E0019A94
:104DD000414B944619689A466144039A1960029BB4
:104DE0000800013A434500D0EAE04346134200D0B0
:104DF000E6E0BB68984663464B441A0001231A4319
:104E000043465A60354B1868884200D21960344BCB
:104E10001868884200D219604446B4E07B6898461E
:104E200044E70122290013431143651961603000F2
:104E3000BD606B6000F090F920000830CFE6A268FA
:104E4000D0608260C1E6614609E7DC680231A342B6
:104E500000D104E7B2E65A0A042A00D888E0142AEE
:104E600000D90FE110005B3082465C32D20008208E
:104E700040428446BA189444624692680B30814698
:104E8000944500D1E5E00800A2466146844602E070
:104E90009268914204D04C465068A0439842F7D89B
:104EA000D368614654469C466346A260E3609C60BA
:104EB000D460FBE6142973D9542900D9EBE06E23A2
:104EC0009846290B88446F31CB00A9E6080F0020D3
:104ED000E0160020000F0020B0160020D816002099
:104EE000DC160020BA460120514684464919054384
:104EF00050464560856847466046EB605E469D606B
:104F0000534639617961204308374860CF603000EB
:104F10008F609C5000F020F9504608305FE6BA469A
:104F200001205E465244516801435160BA68300026
:104F3000D3609A6000F010F9380008304FE62B007B
:104F4000E908083332E66119884601218C460D4391
:104F50004146656039617961CA608A606246024390
:104F60004A60E050300000F0F7F82000083036E6E4
:104F70009A091000393238308246D20077E7BC42B5
:104F800014D0BC68626803239A43531BAA4202D31D
:104F90000F2B00DD45E7300000F0DEF800201EE6B4
:104FA0005B23984688445C31CB0039E6644B9A46D3
:104FB0001868019B9C46534660441860039B5A1E28
:104FC0005B461B68013371D0434602995B1A514618
:104FD0001B180B60072341464046194002911842B6
:104FE00040D00398013384465B1A019998444144A8
:104FF0000191634411405B1A1A401100300093463E
:1050000000F0B2F8431C78D04346C01A03005B445A
:105010000193534619680120594419604346019A87
:10502000BB6002435A60BC4200D1EBE64B460F2BFB
:1050300040D907220C3B93436268024005201A4383
:105040006260E218506090600F2B4BD843465A685C
:10505000D8E65346981001238340404618438046C3
:10506000786021E7019B039943441340CB1A1A400F
:1050700011003000934600F077F8431CC4D10023A0
:105080009B46C6E7542A18D81A0B10006F326E30B0
:105090008246D200EBE6AA235B00994218D8DD3B9A
:1050A0009846E90B88447831CB00B9E55B46414628
:1050B00019608FE7434658606DE7AA20400082429E
:1050C00026D8DA0B1000783277308246D200CEE64E
:1050D0001C4B994226D87C239846A90C88447D31E4
:1050E000CB009DE521003000083100F0EFF8534679
:1050F0001968BB6898465A6884E6019A029B9446F0
:105100004246083B63449B1A019300239B4680E779
:105110000C4882420CD89A0C10007D327C308246BA
:10512000D200A4E6FE237E227F2190469B0077E5F5
:10513000FE227E209200824699E643465B68F9E5AE
:10514000B01600205405000010B5024800F024F805
:1051500010BDC046AC16002010B5024800F01EF885
:1051600010BDC046AC160020002370B5064C0500EB
:1051700008002360FCF7F2FF431C00D070BD2368D9
:10518000002BFBD02B60F9E7EC1D0020014B1868C9
:105190007047C046101300207047C0467047C04695
:1051A000802310B55B01082801D1180010BDFFF75E
:1051B000EDFF16230360173BF7E7C04610B58307E2
:1051C0000AD00300032102E001330B4205D01A7814
:1051D000002AF9D1181A10BD030019680C4A0D4CA9
:1051E0008A188A4322420FD15968094A04338A181F
:1051F0008A43224208D15968054A04338A188A43EF
:105200002242F1D000E001331A78002AFBD1E1E715
:10521000FFFEFEFE80808080F0B5C646060000B529
:1052200008200D00FFF7BCFF04003000FFF78CFFE3
:10523000234B210098469B685F6803239F433800F7
:105240001138401B0019FDF71FF8451E6543AC429D
:1052500008DC00213000FFF787FF43469B68DB191D
:10526000984206D03000FFF777FF002080BCB84698
:10527000F0BD30006942FFF777FF01300ED0012208
:1052800043467F1B9B6817430E4A5F6013683000DC
:105290005B1B1360FFF760FF0120E7E70021300090
:1052A000FFF762FF43469A68831A0F2BDADD064C3C
:1052B00004492468001B086001210B435360D1E7B7
:1052C000080F0020B0160020000F0020F8B5CE46D1
:1052D000474605000C0080B5002957D0FFF734FF82
:1052E000012321009C4608394868624603000324D4
:1052F0009343CF187A68654EA243B468BC4200D18C
:1053000070E0BC18A14664467A60044221D1086866
:10531000091A1B18886880464846406820403400B7
:1053200008348146A04551D04046CC68C460A06096
:105330004846002811D19B185548BA68824200D1CE
:105340007FE0F868D060826001221A434A60CB5047
:1053500007E0484640682042EDD062461A434A6062
:105360003B6080229200934214D2DA08580901234C
:105370008340706803437360D3009B199A68CB60C5
:105380008A609960D1602800FFF7E6FEC0BCB9468C
:10539000B046F8BD5C0A042C3DD89C092000393485
:1053A0003830E40034192268083C0327944203D1C2
:1053B00040E09268944203D05068B8439842F8D8CD
:1053C000D468CC608A60A160D160DCE7002858D145
:1053D000B868D218FB68C3609860634613434B609B
:1053E0008A50D0E79A186346034206D10B68C91A5F
:1053F0008868D218CB68C3609860012313434B6060
:10540000244BB1601B689342BDD8234B2800196818
:10541000FFF702FFB7E7142C07D9542C1AD81C0B3E
:1054200020006F346E30E400BCE720005C345B3059
:10543000E400B7E701238010834070680343736082
:10544000BFE7D1609160CA608A6001221A434A6056
:10545000CB5098E7AA225200944205D8DC0B2000DA
:1054600078347730E4009DE70C4A944205D89C0CD0
:1054700020007D347C30E40094E7FE247E20A400EC
:1054800090E762461A434A603B607CE7080F0020C1
:10549000100F0020040F0020E0160020540500002B
:1054A000F8B5C0460000000001B40248844601BCC3
:1054B000604700BFC902002001B40248844601BC15
:1054C000604700BF2D02002001B40248844601BCA1
:1054D000604700BFD909002001B40248844601BCDE
:1054E000604700BFB109002001B40248844601BCF6
:1054F000604700BF750D002001B40248844601BC1E
:10550000604700BFC100002001B40248844601BCCE
:10551000604700BF9D01002001B40248844601BCE1
:10552000604700BF0101002001B40248844601BC6D
:10553000604700BF4D0B002001B40248844601BC07
:10554000604700BF8903002001B40248844601BCC3
:08555000604700BFF50A0020CE
:105558002053494E414C204645434841444F0000A2
:10556800200000002020202041475541524445009A
:105578002020202053494E414C2044450000000083
:10558800202020204154454E43414F0020202050E8
:105598005245504152452D534500000020205349A3
:1055A8004E414C2041424552544F00002041545234
:1055B8004156455353415220434F4D00202020204F
:1055C8004355494441444F004E6F207370696E6CD7
:1055D8006F636B732061726520617661696C6162CB
:1055E8006C6500004E6F20757365722049525173C7
:1055F8002061726520617661696C61626C6500008A
:10560800486172647761726520616C61726D2025F2
:105618006420616C726561647920636C61696D6591
:10562800640000000A2A2A2A2050414E4943202AB1
:105638002A2A0A000A000000486172642061737314
:10564800657274006D697373696E6720646F756243
:105658006C652066756E6374696F6E004F75742093
:105668006F66206D656D6F727900000052656C651C
:1056780061736500626F6F74325F773235713038ED
:1056880030000000302E3100312E352E3100000060
:105698007069636F5F770000646973706C61795F2C
:1056A8006F6C6564000000004A616E20323620325B
:1056B8003032350055534220737464696E202F20B0
:1056C8007374646F757400005261737062657272EE
:1056D80079205069000000005069636F00000000E5
:1056E800426F617264204344430000005265736551
:1056F80074000000556E68616E646C6564204952E0
:105708005120307825780A0065702025642025739B
:105718002077617320616C726561647920617661BC
:10572800696C61626C65000043616E277420636F69
:105738006E74696E75652078666572206F6E206973
:105748006E61637469766520657020256420257311
:10575800000000006F757400696E00000000000012
:105768000000000078141211121478007F4949498A
:1057780049497F007E414141414141007F414141CA
:1057880041417E007F494949494949007F09090942
:10579800090101007F414141515173007F08080808
:1057A80008087F000000007F000000002141413F01
:1057B80001010100007F0808142241007F40404099
:1057C800404040007F02040804027F007F02040872
:1057D80010207F003E41414141413E007F1111119F
:1057E80011110E003E41414951617E007F11111196
:1057F80031510E0046494949493000000101017FF5
:10580800010101003F40404040403F000F10204050
:1058180020100F007F20100810207F000041221464
:105828001422410001020478040201004161594533
:10583800434100003E41414941413E000000427F52
:105848004000000030494949494600004949494952
:10585800494936003F202078202000004F49494917
:10586800493000003F48484848483000010101617C
:10587800310D0300364949494949360006090909E5
:1058880009097F00AE200040A1A83FC8D300DA1262
:10589800D580D9F1DB3081FFA4A68D142EAF00008E
:1058A80006005250D3F0754274560010060052504C
:1058B800E182887F7C560010060052503ABCA9113C
:1058C8008C56001006005250BBFF3CB6985600108C
:1058D8000D0A0000D5260010D9260010E526001074
:1058E800112700100D27001000000000060052507C
:1058F80053B4F4A1BC56001000000000D0560010AC
:10590800E05600105C230020E8560010F456001002
:1059180009025400030100807D080B000202020006
:10592800000904000001020200040524002001050A
:105938002401000104240202052406000107058150
:105948000308001009040100020A0000000705020C
:10595800024000000705820240000009040200001E
:10596800FF00010512010002EF0201408A2E0A0021
:10597800000101020301000024320010BE330010B0
:105988007233001024320010543300103C330010DE
:10599800C43200107232001066320010DA3600107D
:1059A800C036001070340010EE360010703400104D
:1059B800A83600109436001070340010803600109D
:1059C8005636001070340010723700105637001029
:1059D8004A37001070340010703400102C37001053
:1059E80056370010703400107034001070340010F6
:1059F80070340010703400107034001070340010CF
:105A080008370010813F0010FD3F001029400010AA
:105A18000D410010F141001000000000002020207E
:105A28002020202020202828282828202020202046
:105A38002020202020202020202020202088101016
:105A48001010101010101010101010101004040472
:105A58000404040404040410101010101010414130
:105A6800414141410101010101010101010101011E
:105A78000101010101010101101010101010424232
:105A880042424242020202020202020202020202EE
:105A9800020202020202020210101010200000008E
:105AA80000000000000000000000000000000000EE
:105AB80000000000000000000000000000000000DE
:105AC80000000000000000000000000000000000CE
